{
  "_format": "hh-sol-artifact-1",
  "contractName": "LendingPool",
  "sourceName": "contracts/LendingPool.sol",
  "abi": [
    {
      "inputs": [],
      "stateMutability": "nonpayable",
      "type": "constructor"
    },
    {
      "inputs": [],
      "name": "ReentrancyGuardReentrantCall",
      "type": "error"
    },
    {
      "anonymous": false,
      "inputs": [
        {
          "indexed": true,
          "internalType": "address",
          "name": "user",
          "type": "address"
        },
        {
          "indexed": true,
          "internalType": "contract IERC20",
          "name": "token",
          "type": "address"
        },
        {
          "indexed": false,
          "internalType": "uint256",
          "name": "amount",
          "type": "uint256"
        }
      ],
      "name": "Deposit",
      "type": "event"
    },
    {
      "anonymous": false,
      "inputs": [
        {
          "indexed": true,
          "internalType": "address",
          "name": "borrower",
          "type": "address"
        },
        {
          "indexed": false,
          "internalType": "uint256",
          "name": "loanAmount",
          "type": "uint256"
        }
      ],
      "name": "LoanCreated",
      "type": "event"
    },
    {
      "anonymous": false,
      "inputs": [
        {
          "indexed": true,
          "internalType": "address",
          "name": "borrower",
          "type": "address"
        }
      ],
      "name": "LoanLiquidated",
      "type": "event"
    },
    {
      "anonymous": false,
      "inputs": [
        {
          "indexed": false,
          "internalType": "uint256",
          "name": "newThreshold",
          "type": "uint256"
        }
      ],
      "name": "ThresholdUpdated",
      "type": "event"
    },
    {
      "anonymous": false,
      "inputs": [
        {
          "indexed": true,
          "internalType": "contract IERC20",
          "name": "token",
          "type": "address"
        },
        {
          "indexed": false,
          "internalType": "bool",
          "name": "supported",
          "type": "bool"
        }
      ],
      "name": "TokenStatusUpdated",
      "type": "event"
    },
    {
      "anonymous": false,
      "inputs": [
        {
          "indexed": true,
          "internalType": "address",
          "name": "user",
          "type": "address"
        },
        {
          "indexed": true,
          "internalType": "contract IERC20",
          "name": "token",
          "type": "address"
        },
        {
          "indexed": false,
          "internalType": "uint256",
          "name": "amount",
          "type": "uint256"
        }
      ],
      "name": "Withdraw",
      "type": "event"
    },
    {
      "inputs": [],
      "name": "admin",
      "outputs": [
        {
          "internalType": "address",
          "name": "",
          "type": "address"
        }
      ],
      "stateMutability": "view",
      "type": "function"
    },
    {
      "inputs": [
        {
          "internalType": "contract IERC20",
          "name": "_collateralToken",
          "type": "address"
        },
        {
          "internalType": "contract IERC20",
          "name": "_loanToken",
          "type": "address"
        },
        {
          "internalType": "uint256",
          "name": "_collateralAmount",
          "type": "uint256"
        },
        {
          "internalType": "uint256",
          "name": "_loanAmount",
          "type": "uint256"
        },
        {
          "internalType": "uint256",
          "name": "_interestRate",
          "type": "uint256"
        },
        {
          "internalType": "uint256",
          "name": "_durationDays",
          "type": "uint256"
        }
      ],
      "name": "createLoan",
      "outputs": [],
      "stateMutability": "nonpayable",
      "type": "function"
    },
    {
      "inputs": [
        {
          "internalType": "contract IERC20",
          "name": "token",
          "type": "address"
        },
        {
          "internalType": "uint256",
          "name": "amount",
          "type": "uint256"
        }
      ],
      "name": "deposit",
      "outputs": [],
      "stateMutability": "nonpayable",
      "type": "function"
    },
    {
      "inputs": [
        {
          "internalType": "contract IERC20",
          "name": "",
          "type": "address"
        },
        {
          "internalType": "address",
          "name": "",
          "type": "address"
        }
      ],
      "name": "deposits",
      "outputs": [
        {
          "internalType": "uint256",
          "name": "",
          "type": "uint256"
        }
      ],
      "stateMutability": "view",
      "type": "function"
    },
    {
      "inputs": [
        {
          "internalType": "contract IERC20",
          "name": "token",
          "type": "address"
        }
      ],
      "name": "emergencyWithdraw",
      "outputs": [],
      "stateMutability": "nonpayable",
      "type": "function"
    },
    {
      "inputs": [
        {
          "internalType": "address",
          "name": "_borrower",
          "type": "address"
        }
      ],
      "name": "liquidateLoan",
      "outputs": [],
      "stateMutability": "nonpayable",
      "type": "function"
    },
    {
      "inputs": [],
      "name": "liquidationThreshold",
      "outputs": [
        {
          "internalType": "uint256",
          "name": "",
          "type": "uint256"
        }
      ],
      "stateMutability": "view",
      "type": "function"
    },
    {
      "inputs": [
        {
          "internalType": "address",
          "name": "",
          "type": "address"
        }
      ],
      "name": "loans",
      "outputs": [
        {
          "internalType": "address",
          "name": "borrower",
          "type": "address"
        },
        {
          "internalType": "contract IERC20",
          "name": "collateralToken",
          "type": "address"
        },
        {
          "internalType": "contract IERC20",
          "name": "loanToken",
          "type": "address"
        },
        {
          "internalType": "uint256",
          "name": "collateralAmount",
          "type": "uint256"
        },
        {
          "internalType": "uint256",
          "name": "loanAmount",
          "type": "uint256"
        },
        {
          "internalType": "uint256",
          "name": "interestRate",
          "type": "uint256"
        },
        {
          "internalType": "uint256",
          "name": "dueDate",
          "type": "uint256"
        },
        {
          "internalType": "bool",
          "name": "liquidated",
          "type": "bool"
        },
        {
          "internalType": "uint256",
          "name": "lastInterestUpdate",
          "type": "uint256"
        },
        {
          "internalType": "uint256",
          "name": "accruedInterest",
          "type": "uint256"
        }
      ],
      "stateMutability": "view",
      "type": "function"
    },
    {
      "inputs": [],
      "name": "paused",
      "outputs": [
        {
          "internalType": "bool",
          "name": "",
          "type": "bool"
        }
      ],
      "stateMutability": "view",
      "type": "function"
    },
    {
      "inputs": [],
      "name": "ping",
      "outputs": [
        {
          "internalType": "string",
          "name": "",
          "type": "string"
        }
      ],
      "stateMutability": "pure",
      "type": "function"
    },
    {
      "inputs": [],
      "name": "repayLoan",
      "outputs": [],
      "stateMutability": "nonpayable",
      "type": "function"
    },
    {
      "inputs": [
        {
          "internalType": "uint256",
          "name": "_threshold",
          "type": "uint256"
        }
      ],
      "name": "setLiquidationThreshold",
      "outputs": [],
      "stateMutability": "nonpayable",
      "type": "function"
    },
    {
      "inputs": [
        {
          "internalType": "bool",
          "name": "_paused",
          "type": "bool"
        }
      ],
      "name": "setPaused",
      "outputs": [],
      "stateMutability": "nonpayable",
      "type": "function"
    },
    {
      "inputs": [
        {
          "internalType": "contract IERC20",
          "name": "token",
          "type": "address"
        },
        {
          "internalType": "bool",
          "name": "supported",
          "type": "bool"
        }
      ],
      "name": "setSupportedToken",
      "outputs": [],
      "stateMutability": "nonpayable",
      "type": "function"
    },
    {
      "inputs": [
        {
          "internalType": "contract IERC20",
          "name": "",
          "type": "address"
        }
      ],
      "name": "supportedTokens",
      "outputs": [
        {
          "internalType": "bool",
          "name": "",
          "type": "bool"
        }
      ],
      "stateMutability": "view",
      "type": "function"
    },
    {
      "inputs": [
        {
          "internalType": "contract IERC20",
          "name": "",
          "type": "address"
        }
      ],
      "name": "totalDeposits",
      "outputs": [
        {
          "internalType": "uint256",
          "name": "",
          "type": "uint256"
        }
      ],
      "stateMutability": "view",
      "type": "function"
    },
    {
      "inputs": [
        {
          "internalType": "contract IERC20",
          "name": "token",
          "type": "address"
        },
        {
          "internalType": "uint256",
          "name": "amount",
          "type": "uint256"
        }
      ],
      "name": "withdraw",
      "outputs": [],
      "stateMutability": "nonpayable",
      "type": "function"
    }
  ],
  "bytecode": "0x6080604052609660035534801561001557600080fd5b506001600081905580546001600160a01b0319163317905561183b8061003c6000396000f3fe608060405234801561001057600080fd5b506004361061010b5760003560e01c806373b4086b116100a2578063e798646611610071578063e798646614610301578063e940325614610314578063f3fef3a314610334578063f851a44014610347578063f966ade71461037257600080fd5b806373b4086b146101e05780638f601f66146102b0578063bbdfa00e146102db578063d0b0c816146102ee57600080fd5b80635c36b186116100de5780635c36b186146101675780635c975abb1461018d57806368c4ac26146101aa5780636ff1c9bc146101cd57600080fd5b806316c38b3c146101105780631cd083e4146101255780634031234c1461013857806347e7ef2414610154575b600080fd5b61012361011e366004611518565b61037a565b005b61012361013336600461154a565b6103c0565b61014160035481565b6040519081526020015b60405180910390f35b6101236101623660046115a3565b6108b7565b6040805180820182526004815263706f6e6760e01b6020820152905161014b91906115cf565b60045461019a9060ff1681565b604051901515815260200161014b565b61019a6101b836600461161d565b60026020526000908152604090205460ff1681565b6101236101db36600461161d565b610a83565b6102536101ee36600461161d565b600560208190526000918252604090912080546001820154600283015460038401546004850154958501546006860154600787015460088801546009909801546001600160a01b03978816999688169895909716969395949293919260ff909116918a565b604080516001600160a01b039b8c168152998b1660208b015297909916968801969096526060870194909452608086019290925260a085015260c0840152151560e08301526101008201526101208101919091526101400161014b565b6101416102be36600461163a565b600660209081526000928352604080842090915290825290205481565b6101236102e936600461161d565b610bad565b6101236102fc366004611673565b610e91565b61012361030f36600461168c565b610f04565b61014161032236600461161d565b60076020526000908152604090205481565b6101236103423660046115a3565b61107d565b60015461035a906001600160a01b031681565b6040516001600160a01b03909116815260200161014b565b610123611241565b6001546001600160a01b031633146103ad5760405162461bcd60e51b81526004016103a4906116ba565b60405180910390fd5b6004805460ff1916911515919091179055565b60045460ff16156103e35760405162461bcd60e51b81526004016103a4906116de565b33600090815260056020526040902060040154156104435760405162461bcd60e51b815260206004820152601f60248201527f596f7520616c7265616479206861766520616e20616374697665206c6f616e0060448201526064016103a4565b6001600160a01b03861660009081526002602052604090205460ff16801561048357506001600160a01b03851660009081526002602052604090205460ff165b6104de5760405162461bcd60e51b815260206004820152602660248201527f436f6c6c61746572616c206f72206c6f616e20746f6b656e206e6f74207375706044820152651c1bdc9d195960d21b60648201526084016103a4565b6000821180156104ef575060648211155b6105335760405162461bcd60e51b8152602060048201526015602482015274496e76616c696420696e746572657374207261746560581b60448201526064016103a4565b6001600160a01b0385166000908152600760205260409020548311156105945760405162461bcd60e51b8152602060048201526016602482015275496e73756666696369656e74206c697175696469747960501b60448201526064016103a4565b600084116105f55760405162461bcd60e51b815260206004820152602860248201527f436f6c6c61746572616c20616d6f756e74206d75737420626520677265617465604482015267072207468616e20360c41b60648201526084016103a4565b6040516323b872dd60e01b81526000906001600160a01b038816906323b872dd9061062890339030908a90600401611707565b6020604051808303816000875af1158015610647573d6000803e3d6000fd5b505050506040513d601f19601f8201168201806040525081019061066b919061172b565b90508061068a5760405162461bcd60e51b81526004016103a490611748565b604051806101400160405280336001600160a01b03168152602001886001600160a01b03168152602001876001600160a01b0316815260200186815260200185815260200184815260200183620151806106e49190611787565b6106ee90426117a4565b815260006020808301829052426040808501919091526060938401839052338084526005808452828520875181546001600160a01b03199081166001600160a01b039283161783559589015160018301805488169183169190911790558885015160028301805490971690821617909555958701516003870155608087015160048088019190915560a08801519187019190915560c0870151600687015560e087015160078701805460ff19169115159190911790556101008701516008870155610120909601516009909501949094555163a9059cbb60e01b81529384019290925260248301879052919088169063a9059cbb906044016020604051808303816000875af1158015610805573d6000803e3d6000fd5b505050506040513d601f19601f82011682018060405250810190610829919061172b565b9050806108785760405162461bcd60e51b815260206004820152601a60248201527f4c6f616e20746f6b656e207472616e73666572206661696c656400000000000060448201526064016103a4565b60405185815233907fff6a5b0e4cacd5965a6a32e6b962e1c85c90ea06d047a28293fe91759a79f2899060200160405180910390a25050505050505050565b6108bf611487565b60045460ff16156108e25760405162461bcd60e51b81526004016103a4906116de565b6001600160a01b03821660009081526002602052604090205460ff166109405760405162461bcd60e51b8152602060048201526013602482015272151bdad95b881b9bdd081cdd5c1c1bdc9d1959606a1b60448201526064016103a4565b6040516323b872dd60e01b81526001600160a01b038316906323b872dd9061097090339030908690600401611707565b6020604051808303816000875af115801561098f573d6000803e3d6000fd5b505050506040513d601f19601f820116820180604052508101906109b3919061172b565b6109cf5760405162461bcd60e51b81526004016103a490611748565b6001600160a01b038216600090815260066020908152604080832033845290915281208054839290610a029084906117a4565b90915550506001600160a01b03821660009081526007602052604081208054839290610a2f9084906117a4565b90915550506040518181526001600160a01b0383169033907f5548c837ab068cf56a2c2479df0882a4922fd203edb7517321831d95078c5f62906020015b60405180910390a3610a7f6001600055565b5050565b6001546001600160a01b03163314610aad5760405162461bcd60e51b81526004016103a4906116ba565b6040516370a0823160e01b81523060048201526000906001600160a01b038316906370a0823190602401602060405180830381865afa158015610af4573d6000803e3d6000fd5b505050506040513d601f19601f82011682018060405250810190610b1891906117b7565b60015460405163a9059cbb60e01b81526001600160a01b0391821660048201526024810183905291925083169063a9059cbb906044016020604051808303816000875af1158015610b6d573d6000803e3d6000fd5b505050506040513d601f19601f82011682018060405250810190610b91919061172b565b610a7f5760405162461bcd60e51b81526004016103a490611748565b60045460ff1615610bd05760405162461bcd60e51b81526004016103a4906116de565b6001600160a01b038116600090815260056020526040902060068101544211610c2e5760405162461bcd60e51b815260206004820152601060248201526f131bd85b881b9bdd08195e1c1a5c995960821b60448201526064016103a4565b600781015460ff1615610c785760405162461bcd60e51b8152602060048201526012602482015271105b1c9958591e481b1a5c5d5a59185d195960721b60448201526064016103a4565b60038101546000610c88836114b1565b8360040154610c9791906117a4565b905060035481610ca79190611787565b610cb2836064611787565b10610cf75760405162461bcd60e51b815260206004820152601560248201527410dbdb1b185d195c985b081cdd59999a58da595b9d605a1b60448201526064016103a4565b6000610d02846114b1565b8460040154610d1191906117a4565b60028501546040516323b872dd60e01b81529192506001600160a01b0316906323b872dd90610d4890339030908690600401611707565b6020604051808303816000875af1158015610d67573d6000803e3d6000fd5b505050506040513d601f19601f82011682018060405250810190610d8b919061172b565b610dc95760405162461bcd60e51b815260206004820152600f60248201526e26bab9ba103932b830bc903637b0b760891b60448201526064016103a4565b6001840154600385015460405163a9059cbb60e01b815233600482015260248101919091526001600160a01b039091169063a9059cbb906044016020604051808303816000875af1158015610e22573d6000803e3d6000fd5b505050506040513d601f19601f82011682018060405250810190610e46919061172b565b5060078401805460ff191660011790556040516001600160a01b038616907f5935028219092e7184ead5f885af757f84da7ac29a9494995fe2fd03083b7e8e90600090a25050505050565b6001546001600160a01b03163314610ebb5760405162461bcd60e51b81526004016103a4906116ba565b60648111610eff5760405162461bcd60e51b8152602060048201526011602482015270125b9d985b1a59081d1a1c995cda1bdb19607a1b60448201526064016103a4565b600355565b6001546001600160a01b03163314610f2e5760405162461bcd60e51b81526004016103a4906116ba565b6001600160a01b038216610f7c5760405162461bcd60e51b8152602060048201526015602482015274496e76616c696420746f6b656e206164647265737360581b60448201526064016103a4565b6000826001600160a01b03166318160ddd6040518163ffffffff1660e01b8152600401602060405180830381865afa158015610fbc573d6000803e3d6000fd5b505050506040513d601f19601f82011682018060405250810190610fe091906117b7565b101561101e5760405162461bcd60e51b815260206004820152600d60248201526c0496e76616c696420455243323609c1b60448201526064016103a4565b6001600160a01b038216600081815260026020908152604091829020805460ff191685151590811790915591519182527fc2af510a9d71a987e12298c8d681a18ee686d181e6fb0bd4166cc01cd7eed4b3910160405180910390a25050565b611085611487565b60045460ff16156110a85760405162461bcd60e51b81526004016103a4906116de565b6001600160a01b03821660009081526006602090815260408083203384529091529020548111156111125760405162461bcd60e51b8152602060048201526014602482015273496e73756666696369656e742062616c616e636560601b60448201526064016103a4565b6001600160a01b0382166000908152600660209081526040808320338452909152812080548392906111459084906117d0565b90915550506001600160a01b038216600090815260076020526040812080548392906111729084906117d0565b909155505060405163a9059cbb60e01b8152336004820152602481018290526001600160a01b0383169063a9059cbb906044016020604051808303816000875af11580156111c4573d6000803e3d6000fd5b505050506040513d601f19601f820116820180604052508101906111e8919061172b565b6112045760405162461bcd60e51b81526004016103a490611748565b6040518181526001600160a01b0383169033907f9b1bfa7fa9ee420a16e124f794c35ac9f90472acc99140eb2f6447c714cad8eb90602001610a6d565b611249611487565b336000908152600560205260409020600781015460ff16156112ad5760405162461bcd60e51b815260206004820152601760248201527f4c6f616e20616c7265616479206c69717569646174656400000000000000000060448201526064016103a4565b60048082015460028301546040516323b872dd60e01b815291926001600160a01b03909116916323b872dd916112e99133913091879101611707565b6020604051808303816000875af1158015611308573d6000803e3d6000fd5b505050506040513d601f19601f8201168201806040525081019061132c919061172b565b6113485760405162461bcd60e51b81526004016103a490611748565b6001820154600383015460405163a9059cbb60e01b815233600482015260248101919091526001600160a01b039091169063a9059cbb906044016020604051808303816000875af11580156113a1573d6000803e3d6000fd5b505050506040513d601f19601f820116820180604052508101906113c5919061172b565b6114115760405162461bcd60e51b815260206004820152601860248201527f436f6c6c61746572616c2072657475726e206661696c6564000000000000000060448201526064016103a4565b5050336000908152600560208190526040822080546001600160a01b0319908116825560018201805482169055600282018054909116905560038101839055600481018390559081018290556006810182905560078101805460ff1916905560088101829055600901556114856001600055565b565b6002600054036114aa57604051633ee5aeb560e01b815260040160405180910390fd5b6002600055565b6000808260080154426114c491906117d0565b905060646301e1338082856005015486600401546114e29190611787565b6114ec9190611787565b6114f691906117e3565b61150091906117e3565b9392505050565b801515811461151557600080fd5b50565b60006020828403121561152a57600080fd5b813561150081611507565b6001600160a01b038116811461151557600080fd5b60008060008060008060c0878903121561156357600080fd5b863561156e81611535565b9550602087013561157e81611535565b95989597505050506040840135936060810135936080820135935060a0909101359150565b600080604083850312156115b657600080fd5b82356115c181611535565b946020939093013593505050565b600060208083528351808285015260005b818110156115fc578581018301518582016040015282016115e0565b506000604082860101526040601f19601f8301168501019250505092915050565b60006020828403121561162f57600080fd5b813561150081611535565b6000806040838503121561164d57600080fd5b823561165881611535565b9150602083013561166881611535565b809150509250929050565b60006020828403121561168557600080fd5b5035919050565b6000806040838503121561169f57600080fd5b82356116aa81611535565b9150602083013561166881611507565b6020808252600a908201526927b7363c9030b236b4b760b11b604082015260600190565b6020808252600f908201526e10dbdb9d1c9858dd081c185d5cd959608a1b604082015260600190565b6001600160a01b039384168152919092166020820152604081019190915260600190565b60006020828403121561173d57600080fd5b815161150081611507565b6020808252600f908201526e151c985b9cd9995c8819985a5b1959608a1b604082015260600190565b634e487b7160e01b600052601160045260246000fd5b808202811582820484141761179e5761179e611771565b92915050565b8082018082111561179e5761179e611771565b6000602082840312156117c957600080fd5b5051919050565b8181038181111561179e5761179e611771565b60008261180057634e487b7160e01b600052601260045260246000fd5b50049056fea2646970667358221220813136cc3e9d9e46f70f0784325c2d7a445186a00139672163cb8b4de55eb7fb64736f6c63430008140033",
  "linkReferences": {},
  "deployedLinkReferences": {}
}