{
  "_format": "hh-sol-artifact-1",
  "contractName": "LendingPool",
  "sourceName": "contracts/LendingPool.sol",
  "abi": [
    {
      "inputs": [],
      "stateMutability": "nonpayable",
      "type": "constructor"
    },
    {
      "inputs": [],
      "name": "ReentrancyGuardReentrantCall",
      "type": "error"
    },
    {
      "anonymous": false,
      "inputs": [
        {
          "indexed": true,
          "internalType": "address",
          "name": "user",
          "type": "address"
        },
        {
          "indexed": true,
          "internalType": "contract IERC20",
          "name": "token",
          "type": "address"
        },
        {
          "indexed": false,
          "internalType": "uint256",
          "name": "amount",
          "type": "uint256"
        }
      ],
      "name": "Deposit",
      "type": "event"
    },
    {
      "anonymous": false,
      "inputs": [
        {
          "indexed": true,
          "internalType": "address",
          "name": "borrower",
          "type": "address"
        },
        {
          "indexed": false,
          "internalType": "uint256",
          "name": "loanAmount",
          "type": "uint256"
        }
      ],
      "name": "LoanCreated",
      "type": "event"
    },
    {
      "anonymous": false,
      "inputs": [
        {
          "indexed": true,
          "internalType": "address",
          "name": "borrower",
          "type": "address"
        }
      ],
      "name": "LoanLiquidated",
      "type": "event"
    },
    {
      "anonymous": false,
      "inputs": [
        {
          "indexed": false,
          "internalType": "uint256",
          "name": "newThreshold",
          "type": "uint256"
        }
      ],
      "name": "ThresholdUpdated",
      "type": "event"
    },
    {
      "anonymous": false,
      "inputs": [
        {
          "indexed": true,
          "internalType": "contract IERC20",
          "name": "token",
          "type": "address"
        },
        {
          "indexed": false,
          "internalType": "bool",
          "name": "supported",
          "type": "bool"
        }
      ],
      "name": "TokenStatusUpdated",
      "type": "event"
    },
    {
      "anonymous": false,
      "inputs": [
        {
          "indexed": true,
          "internalType": "address",
          "name": "user",
          "type": "address"
        },
        {
          "indexed": true,
          "internalType": "contract IERC20",
          "name": "token",
          "type": "address"
        },
        {
          "indexed": false,
          "internalType": "uint256",
          "name": "amount",
          "type": "uint256"
        }
      ],
      "name": "Withdraw",
      "type": "event"
    },
    {
      "inputs": [],
      "name": "admin",
      "outputs": [
        {
          "internalType": "address",
          "name": "",
          "type": "address"
        }
      ],
      "stateMutability": "view",
      "type": "function"
    },
    {
      "inputs": [
        {
          "internalType": "contract IERC20",
          "name": "_collateralToken",
          "type": "address"
        },
        {
          "internalType": "contract IERC20",
          "name": "_loanToken",
          "type": "address"
        },
        {
          "internalType": "uint256",
          "name": "_collateralAmount",
          "type": "uint256"
        },
        {
          "internalType": "uint256",
          "name": "_loanAmount",
          "type": "uint256"
        },
        {
          "internalType": "uint256",
          "name": "_interestRate",
          "type": "uint256"
        },
        {
          "internalType": "uint256",
          "name": "_durationDays",
          "type": "uint256"
        }
      ],
      "name": "createLoan",
      "outputs": [],
      "stateMutability": "nonpayable",
      "type": "function"
    },
    {
      "inputs": [
        {
          "internalType": "contract IERC20",
          "name": "token",
          "type": "address"
        },
        {
          "internalType": "uint256",
          "name": "amount",
          "type": "uint256"
        }
      ],
      "name": "deposit",
      "outputs": [],
      "stateMutability": "nonpayable",
      "type": "function"
    },
    {
      "inputs": [
        {
          "internalType": "contract IERC20",
          "name": "",
          "type": "address"
        },
        {
          "internalType": "address",
          "name": "",
          "type": "address"
        }
      ],
      "name": "deposits",
      "outputs": [
        {
          "internalType": "uint256",
          "name": "",
          "type": "uint256"
        }
      ],
      "stateMutability": "view",
      "type": "function"
    },
    {
      "inputs": [
        {
          "internalType": "contract IERC20",
          "name": "token",
          "type": "address"
        }
      ],
      "name": "emergencyWithdraw",
      "outputs": [],
      "stateMutability": "nonpayable",
      "type": "function"
    },
    {
      "inputs": [
        {
          "internalType": "address",
          "name": "_borrower",
          "type": "address"
        }
      ],
      "name": "liquidateLoan",
      "outputs": [],
      "stateMutability": "nonpayable",
      "type": "function"
    },
    {
      "inputs": [],
      "name": "liquidationThreshold",
      "outputs": [
        {
          "internalType": "uint256",
          "name": "",
          "type": "uint256"
        }
      ],
      "stateMutability": "view",
      "type": "function"
    },
    {
      "inputs": [
        {
          "internalType": "address",
          "name": "",
          "type": "address"
        }
      ],
      "name": "loans",
      "outputs": [
        {
          "internalType": "address",
          "name": "borrower",
          "type": "address"
        },
        {
          "internalType": "contract IERC20",
          "name": "collateralToken",
          "type": "address"
        },
        {
          "internalType": "contract IERC20",
          "name": "loanToken",
          "type": "address"
        },
        {
          "internalType": "uint256",
          "name": "collateralAmount",
          "type": "uint256"
        },
        {
          "internalType": "uint256",
          "name": "loanAmount",
          "type": "uint256"
        },
        {
          "internalType": "uint256",
          "name": "interestRate",
          "type": "uint256"
        },
        {
          "internalType": "uint256",
          "name": "dueDate",
          "type": "uint256"
        },
        {
          "internalType": "bool",
          "name": "liquidated",
          "type": "bool"
        },
        {
          "internalType": "uint256",
          "name": "lastInterestUpdate",
          "type": "uint256"
        },
        {
          "internalType": "uint256",
          "name": "accruedInterest",
          "type": "uint256"
        }
      ],
      "stateMutability": "view",
      "type": "function"
    },
    {
      "inputs": [],
      "name": "paused",
      "outputs": [
        {
          "internalType": "bool",
          "name": "",
          "type": "bool"
        }
      ],
      "stateMutability": "view",
      "type": "function"
    },
    {
      "inputs": [],
      "name": "ping",
      "outputs": [
        {
          "internalType": "string",
          "name": "",
          "type": "string"
        }
      ],
      "stateMutability": "pure",
      "type": "function"
    },
    {
      "inputs": [],
      "name": "repayLoan",
      "outputs": [],
      "stateMutability": "nonpayable",
      "type": "function"
    },
    {
      "inputs": [
        {
          "internalType": "uint256",
          "name": "_threshold",
          "type": "uint256"
        }
      ],
      "name": "setLiquidationThreshold",
      "outputs": [],
      "stateMutability": "nonpayable",
      "type": "function"
    },
    {
      "inputs": [
        {
          "internalType": "bool",
          "name": "_paused",
          "type": "bool"
        }
      ],
      "name": "setPaused",
      "outputs": [],
      "stateMutability": "nonpayable",
      "type": "function"
    },
    {
      "inputs": [
        {
          "internalType": "contract IERC20",
          "name": "token",
          "type": "address"
        },
        {
          "internalType": "bool",
          "name": "supported",
          "type": "bool"
        }
      ],
      "name": "setSupportedToken",
      "outputs": [],
      "stateMutability": "nonpayable",
      "type": "function"
    },
    {
      "inputs": [
        {
          "internalType": "contract IERC20",
          "name": "",
          "type": "address"
        }
      ],
      "name": "supportedTokens",
      "outputs": [
        {
          "internalType": "bool",
          "name": "",
          "type": "bool"
        }
      ],
      "stateMutability": "view",
      "type": "function"
    },
    {
      "inputs": [
        {
          "internalType": "contract IERC20",
          "name": "",
          "type": "address"
        }
      ],
      "name": "totalDeposits",
      "outputs": [
        {
          "internalType": "uint256",
          "name": "",
          "type": "uint256"
        }
      ],
      "stateMutability": "view",
      "type": "function"
    },
    {
      "inputs": [
        {
          "internalType": "contract IERC20",
          "name": "token",
          "type": "address"
        },
        {
          "internalType": "uint256",
          "name": "amount",
          "type": "uint256"
        }
      ],
      "name": "withdraw",
      "outputs": [],
      "stateMutability": "nonpayable",
      "type": "function"
    }
  ],
  "bytecode": "0x6080604052609660035534801561001557600080fd5b506001600081905580546001600160a01b031916331790556117f08061003c6000396000f3fe608060405234801561001057600080fd5b506004361061010b5760003560e01c806373b4086b116100a2578063e798646611610071578063e798646614610301578063e940325614610314578063f3fef3a314610334578063f851a44014610347578063f966ade71461037257600080fd5b806373b4086b146101e05780638f601f66146102b0578063bbdfa00e146102db578063d0b0c816146102ee57600080fd5b80635c36b186116100de5780635c36b186146101675780635c975abb1461018d57806368c4ac26146101aa5780636ff1c9bc146101cd57600080fd5b806316c38b3c146101105780631cd083e4146101255780634031234c1461013857806347e7ef2414610154575b600080fd5b61012361011e3660046114cd565b61037a565b005b6101236101333660046114ff565b6103c0565b61014160035481565b6040519081526020015b60405180910390f35b610123610162366004611558565b610857565b6040805180820182526004815263706f6e6760e01b6020820152905161014b9190611584565b60045461019a9060ff1681565b604051901515815260200161014b565b61019a6101b83660046115d2565b60026020526000908152604090205460ff1681565b6101236101db3660046115d2565b610a23565b6102536101ee3660046115d2565b600560208190526000918252604090912080546001820154600283015460038401546004850154958501546006860154600787015460088801546009909801546001600160a01b03978816999688169895909716969395949293919260ff909116918a565b604080516001600160a01b039b8c168152998b1660208b015297909916968801969096526060870194909452608086019290925260a085015260c0840152151560e08301526101008201526101208101919091526101400161014b565b6101416102be3660046115ef565b600660209081526000928352604080842090915290825290205481565b6101236102e93660046115d2565b610b4d565b6101236102fc366004611628565b610e31565b61012361030f366004611641565b610ea4565b6101416103223660046115d2565b60076020526000908152604090205481565b610123610342366004611558565b61101d565b60015461035a906001600160a01b031681565b6040516001600160a01b03909116815260200161014b565b6101236111e1565b6001546001600160a01b031633146103ad5760405162461bcd60e51b81526004016103a49061166f565b60405180910390fd5b6004805460ff1916911515919091179055565b60045460ff16156103e35760405162461bcd60e51b81526004016103a490611693565b6001600160a01b03861660009081526002602052604090205460ff16801561042357506001600160a01b03851660009081526002602052604090205460ff165b61047e5760405162461bcd60e51b815260206004820152602660248201527f436f6c6c61746572616c206f72206c6f616e20746f6b656e206e6f74207375706044820152651c1bdc9d195960d21b60648201526084016103a4565b60008211801561048f575060648211155b6104d35760405162461bcd60e51b8152602060048201526015602482015274496e76616c696420696e746572657374207261746560581b60448201526064016103a4565b6001600160a01b0385166000908152600760205260409020548311156105345760405162461bcd60e51b8152602060048201526016602482015275496e73756666696369656e74206c697175696469747960501b60448201526064016103a4565b600084116105955760405162461bcd60e51b815260206004820152602860248201527f436f6c6c61746572616c20616d6f756e74206d75737420626520677265617465604482015267072207468616e20360c41b60648201526084016103a4565b6040516323b872dd60e01b81526000906001600160a01b038816906323b872dd906105c890339030908a906004016116bc565b6020604051808303816000875af11580156105e7573d6000803e3d6000fd5b505050506040513d601f19601f8201168201806040525081019061060b91906116e0565b90508061062a5760405162461bcd60e51b81526004016103a4906116fd565b604051806101400160405280336001600160a01b03168152602001886001600160a01b03168152602001876001600160a01b031681526020018681526020018581526020018481526020018362015180610684919061173c565b61068e9042611759565b815260006020808301829052426040808501919091526060938401839052338084526005808452828520875181546001600160a01b03199081166001600160a01b039283161783559589015160018301805488169183169190911790558885015160028301805490971690821617909555958701516003870155608087015160048088019190915560a08801519187019190915560c0870151600687015560e087015160078701805460ff19169115159190911790556101008701516008870155610120909601516009909501949094555163a9059cbb60e01b81529384019290925260248301879052919088169063a9059cbb906044016020604051808303816000875af11580156107a5573d6000803e3d6000fd5b505050506040513d601f19601f820116820180604052508101906107c991906116e0565b9050806108185760405162461bcd60e51b815260206004820152601a60248201527f4c6f616e20746f6b656e207472616e73666572206661696c656400000000000060448201526064016103a4565b60405185815233907fff6a5b0e4cacd5965a6a32e6b962e1c85c90ea06d047a28293fe91759a79f2899060200160405180910390a25050505050505050565b61085f61143c565b60045460ff16156108825760405162461bcd60e51b81526004016103a490611693565b6001600160a01b03821660009081526002602052604090205460ff166108e05760405162461bcd60e51b8152602060048201526013602482015272151bdad95b881b9bdd081cdd5c1c1bdc9d1959606a1b60448201526064016103a4565b6040516323b872dd60e01b81526001600160a01b038316906323b872dd90610910903390309086906004016116bc565b6020604051808303816000875af115801561092f573d6000803e3d6000fd5b505050506040513d601f19601f8201168201806040525081019061095391906116e0565b61096f5760405162461bcd60e51b81526004016103a4906116fd565b6001600160a01b0382166000908152600660209081526040808320338452909152812080548392906109a2908490611759565b90915550506001600160a01b038216600090815260076020526040812080548392906109cf908490611759565b90915550506040518181526001600160a01b0383169033907f5548c837ab068cf56a2c2479df0882a4922fd203edb7517321831d95078c5f62906020015b60405180910390a3610a1f6001600055565b5050565b6001546001600160a01b03163314610a4d5760405162461bcd60e51b81526004016103a49061166f565b6040516370a0823160e01b81523060048201526000906001600160a01b038316906370a0823190602401602060405180830381865afa158015610a94573d6000803e3d6000fd5b505050506040513d601f19601f82011682018060405250810190610ab8919061176c565b60015460405163a9059cbb60e01b81526001600160a01b0391821660048201526024810183905291925083169063a9059cbb906044016020604051808303816000875af1158015610b0d573d6000803e3d6000fd5b505050506040513d601f19601f82011682018060405250810190610b3191906116e0565b610a1f5760405162461bcd60e51b81526004016103a4906116fd565b60045460ff1615610b705760405162461bcd60e51b81526004016103a490611693565b6001600160a01b038116600090815260056020526040902060068101544211610bce5760405162461bcd60e51b815260206004820152601060248201526f131bd85b881b9bdd08195e1c1a5c995960821b60448201526064016103a4565b600781015460ff1615610c185760405162461bcd60e51b8152602060048201526012602482015271105b1c9958591e481b1a5c5d5a59185d195960721b60448201526064016103a4565b60038101546000610c2883611466565b8360040154610c379190611759565b905060035481610c47919061173c565b610c5283606461173c565b10610c975760405162461bcd60e51b815260206004820152601560248201527410dbdb1b185d195c985b081cdd59999a58da595b9d605a1b60448201526064016103a4565b6000610ca284611466565b8460040154610cb19190611759565b60028501546040516323b872dd60e01b81529192506001600160a01b0316906323b872dd90610ce8903390309086906004016116bc565b6020604051808303816000875af1158015610d07573d6000803e3d6000fd5b505050506040513d601f19601f82011682018060405250810190610d2b91906116e0565b610d695760405162461bcd60e51b815260206004820152600f60248201526e26bab9ba103932b830bc903637b0b760891b60448201526064016103a4565b6001840154600385015460405163a9059cbb60e01b815233600482015260248101919091526001600160a01b039091169063a9059cbb906044016020604051808303816000875af1158015610dc2573d6000803e3d6000fd5b505050506040513d601f19601f82011682018060405250810190610de691906116e0565b5060078401805460ff191660011790556040516001600160a01b038616907f5935028219092e7184ead5f885af757f84da7ac29a9494995fe2fd03083b7e8e90600090a25050505050565b6001546001600160a01b03163314610e5b5760405162461bcd60e51b81526004016103a49061166f565b60648111610e9f5760405162461bcd60e51b8152602060048201526011602482015270125b9d985b1a59081d1a1c995cda1bdb19607a1b60448201526064016103a4565b600355565b6001546001600160a01b03163314610ece5760405162461bcd60e51b81526004016103a49061166f565b6001600160a01b038216610f1c5760405162461bcd60e51b8152602060048201526015602482015274496e76616c696420746f6b656e206164647265737360581b60448201526064016103a4565b6000826001600160a01b03166318160ddd6040518163ffffffff1660e01b8152600401602060405180830381865afa158015610f5c573d6000803e3d6000fd5b505050506040513d601f19601f82011682018060405250810190610f80919061176c565b1015610fbe5760405162461bcd60e51b815260206004820152600d60248201526c0496e76616c696420455243323609c1b60448201526064016103a4565b6001600160a01b038216600081815260026020908152604091829020805460ff191685151590811790915591519182527fc2af510a9d71a987e12298c8d681a18ee686d181e6fb0bd4166cc01cd7eed4b3910160405180910390a25050565b61102561143c565b60045460ff16156110485760405162461bcd60e51b81526004016103a490611693565b6001600160a01b03821660009081526006602090815260408083203384529091529020548111156110b25760405162461bcd60e51b8152602060048201526014602482015273496e73756666696369656e742062616c616e636560601b60448201526064016103a4565b6001600160a01b0382166000908152600660209081526040808320338452909152812080548392906110e5908490611785565b90915550506001600160a01b03821660009081526007602052604081208054839290611112908490611785565b909155505060405163a9059cbb60e01b8152336004820152602481018290526001600160a01b0383169063a9059cbb906044016020604051808303816000875af1158015611164573d6000803e3d6000fd5b505050506040513d601f19601f8201168201806040525081019061118891906116e0565b6111a45760405162461bcd60e51b81526004016103a4906116fd565b6040518181526001600160a01b0383169033907f9b1bfa7fa9ee420a16e124f794c35ac9f90472acc99140eb2f6447c714cad8eb90602001610a0d565b6111e961143c565b336000908152600560205260409020600781015460ff161561124d5760405162461bcd60e51b815260206004820152601760248201527f4c6f616e20616c7265616479206c69717569646174656400000000000000000060448201526064016103a4565b600061125882611466565b82600401546112679190611759565b60028301546040516323b872dd60e01b81529192506001600160a01b0316906323b872dd9061129e903390309086906004016116bc565b6020604051808303816000875af11580156112bd573d6000803e3d6000fd5b505050506040513d601f19601f820116820180604052508101906112e191906116e0565b6112fd5760405162461bcd60e51b81526004016103a4906116fd565b6001820154600383015460405163a9059cbb60e01b815233600482015260248101919091526001600160a01b039091169063a9059cbb906044016020604051808303816000875af1158015611356573d6000803e3d6000fd5b505050506040513d601f19601f8201168201806040525081019061137a91906116e0565b6113c65760405162461bcd60e51b815260206004820152601860248201527f436f6c6c61746572616c2072657475726e206661696c6564000000000000000060448201526064016103a4565b5050336000908152600560208190526040822080546001600160a01b0319908116825560018201805482169055600282018054909116905560038101839055600481018390559081018290556006810182905560078101805460ff19169055600881018290556009015561143a6001600055565b565b60026000540361145f57604051633ee5aeb560e01b815260040160405180910390fd5b6002600055565b6000808260080154426114799190611785565b905060646301e133808285600501548660040154611497919061173c565b6114a1919061173c565b6114ab9190611798565b6114b59190611798565b9392505050565b80151581146114ca57600080fd5b50565b6000602082840312156114df57600080fd5b81356114b5816114bc565b6001600160a01b03811681146114ca57600080fd5b60008060008060008060c0878903121561151857600080fd5b8635611523816114ea565b95506020870135611533816114ea565b95989597505050506040840135936060810135936080820135935060a0909101359150565b6000806040838503121561156b57600080fd5b8235611576816114ea565b946020939093013593505050565b600060208083528351808285015260005b818110156115b157858101830151858201604001528201611595565b506000604082860101526040601f19601f8301168501019250505092915050565b6000602082840312156115e457600080fd5b81356114b5816114ea565b6000806040838503121561160257600080fd5b823561160d816114ea565b9150602083013561161d816114ea565b809150509250929050565b60006020828403121561163a57600080fd5b5035919050565b6000806040838503121561165457600080fd5b823561165f816114ea565b9150602083013561161d816114bc565b6020808252600a908201526927b7363c9030b236b4b760b11b604082015260600190565b6020808252600f908201526e10dbdb9d1c9858dd081c185d5cd959608a1b604082015260600190565b6001600160a01b039384168152919092166020820152604081019190915260600190565b6000602082840312156116f257600080fd5b81516114b5816114bc565b6020808252600f908201526e151c985b9cd9995c8819985a5b1959608a1b604082015260600190565b634e487b7160e01b600052601160045260246000fd5b808202811582820484141761175357611753611726565b92915050565b8082018082111561175357611753611726565b60006020828403121561177e57600080fd5b5051919050565b8181038181111561175357611753611726565b6000826117b557634e487b7160e01b600052601260045260246000fd5b50049056fea26469706673582212202dff1b5609e1a9e32a9d75f02087c2548c0c3823b2368b2fced04eb0b3c661fe64736f6c63430008140033",
  "linkReferences": {},
  "deployedLinkReferences": {}
}