{
  "_format": "hh-sol-artifact-1",
  "contractName": "LendingPool",
  "sourceName": "contracts/LendingPool.sol",
  "abi": [
    {
      "inputs": [],
      "stateMutability": "nonpayable",
      "type": "constructor"
    },
    {
      "inputs": [],
      "name": "ReentrancyGuardReentrantCall",
      "type": "error"
    },
    {
      "anonymous": false,
      "inputs": [
        {
          "indexed": true,
          "internalType": "address",
          "name": "user",
          "type": "address"
        },
        {
          "indexed": true,
          "internalType": "contract IERC20",
          "name": "token",
          "type": "address"
        },
        {
          "indexed": false,
          "internalType": "uint256",
          "name": "amount",
          "type": "uint256"
        }
      ],
      "name": "Deposit",
      "type": "event"
    },
    {
      "anonymous": false,
      "inputs": [
        {
          "indexed": true,
          "internalType": "address",
          "name": "borrower",
          "type": "address"
        },
        {
          "indexed": false,
          "internalType": "uint256",
          "name": "loanAmount",
          "type": "uint256"
        }
      ],
      "name": "LoanCreated",
      "type": "event"
    },
    {
      "anonymous": false,
      "inputs": [
        {
          "indexed": true,
          "internalType": "address",
          "name": "borrower",
          "type": "address"
        }
      ],
      "name": "LoanLiquidated",
      "type": "event"
    },
    {
      "anonymous": false,
      "inputs": [
        {
          "indexed": false,
          "internalType": "uint256",
          "name": "newThreshold",
          "type": "uint256"
        }
      ],
      "name": "ThresholdUpdated",
      "type": "event"
    },
    {
      "anonymous": false,
      "inputs": [
        {
          "indexed": true,
          "internalType": "contract IERC20",
          "name": "token",
          "type": "address"
        },
        {
          "indexed": false,
          "internalType": "bool",
          "name": "supported",
          "type": "bool"
        }
      ],
      "name": "TokenStatusUpdated",
      "type": "event"
    },
    {
      "anonymous": false,
      "inputs": [
        {
          "indexed": true,
          "internalType": "address",
          "name": "user",
          "type": "address"
        },
        {
          "indexed": true,
          "internalType": "contract IERC20",
          "name": "token",
          "type": "address"
        },
        {
          "indexed": false,
          "internalType": "uint256",
          "name": "amount",
          "type": "uint256"
        }
      ],
      "name": "Withdraw",
      "type": "event"
    },
    {
      "inputs": [],
      "name": "admin",
      "outputs": [
        {
          "internalType": "address",
          "name": "",
          "type": "address"
        }
      ],
      "stateMutability": "view",
      "type": "function"
    },
    {
      "inputs": [
        {
          "internalType": "contract IERC20",
          "name": "_collateralToken",
          "type": "address"
        },
        {
          "internalType": "contract IERC20",
          "name": "_loanToken",
          "type": "address"
        },
        {
          "internalType": "uint256",
          "name": "_collateralAmount",
          "type": "uint256"
        },
        {
          "internalType": "uint256",
          "name": "_loanAmount",
          "type": "uint256"
        },
        {
          "internalType": "uint256",
          "name": "_interestRate",
          "type": "uint256"
        },
        {
          "internalType": "uint256",
          "name": "_durationDays",
          "type": "uint256"
        }
      ],
      "name": "createLoan",
      "outputs": [],
      "stateMutability": "nonpayable",
      "type": "function"
    },
    {
      "inputs": [
        {
          "internalType": "contract IERC20",
          "name": "token",
          "type": "address"
        },
        {
          "internalType": "uint256",
          "name": "amount",
          "type": "uint256"
        }
      ],
      "name": "deposit",
      "outputs": [],
      "stateMutability": "nonpayable",
      "type": "function"
    },
    {
      "inputs": [
        {
          "internalType": "contract IERC20",
          "name": "",
          "type": "address"
        },
        {
          "internalType": "address",
          "name": "",
          "type": "address"
        }
      ],
      "name": "deposits",
      "outputs": [
        {
          "internalType": "uint256",
          "name": "",
          "type": "uint256"
        }
      ],
      "stateMutability": "view",
      "type": "function"
    },
    {
      "inputs": [
        {
          "internalType": "contract IERC20",
          "name": "token",
          "type": "address"
        }
      ],
      "name": "emergencyWithdraw",
      "outputs": [],
      "stateMutability": "nonpayable",
      "type": "function"
    },
    {
      "inputs": [
        {
          "internalType": "address",
          "name": "_borrower",
          "type": "address"
        }
      ],
      "name": "liquidateLoan",
      "outputs": [],
      "stateMutability": "nonpayable",
      "type": "function"
    },
    {
      "inputs": [],
      "name": "liquidationThreshold",
      "outputs": [
        {
          "internalType": "uint256",
          "name": "",
          "type": "uint256"
        }
      ],
      "stateMutability": "view",
      "type": "function"
    },
    {
      "inputs": [
        {
          "internalType": "address",
          "name": "",
          "type": "address"
        }
      ],
      "name": "loans",
      "outputs": [
        {
          "internalType": "address",
          "name": "borrower",
          "type": "address"
        },
        {
          "internalType": "contract IERC20",
          "name": "collateralToken",
          "type": "address"
        },
        {
          "internalType": "contract IERC20",
          "name": "loanToken",
          "type": "address"
        },
        {
          "internalType": "uint256",
          "name": "collateralAmount",
          "type": "uint256"
        },
        {
          "internalType": "uint256",
          "name": "loanAmount",
          "type": "uint256"
        },
        {
          "internalType": "uint256",
          "name": "interestRate",
          "type": "uint256"
        },
        {
          "internalType": "uint256",
          "name": "dueDate",
          "type": "uint256"
        },
        {
          "internalType": "bool",
          "name": "liquidated",
          "type": "bool"
        },
        {
          "internalType": "uint256",
          "name": "lastInterestUpdate",
          "type": "uint256"
        },
        {
          "internalType": "uint256",
          "name": "accruedInterest",
          "type": "uint256"
        }
      ],
      "stateMutability": "view",
      "type": "function"
    },
    {
      "inputs": [],
      "name": "paused",
      "outputs": [
        {
          "internalType": "bool",
          "name": "",
          "type": "bool"
        }
      ],
      "stateMutability": "view",
      "type": "function"
    },
    {
      "inputs": [],
      "name": "repayLoan",
      "outputs": [],
      "stateMutability": "nonpayable",
      "type": "function"
    },
    {
      "inputs": [
        {
          "internalType": "uint256",
          "name": "_threshold",
          "type": "uint256"
        }
      ],
      "name": "setLiquidationThreshold",
      "outputs": [],
      "stateMutability": "nonpayable",
      "type": "function"
    },
    {
      "inputs": [
        {
          "internalType": "bool",
          "name": "_paused",
          "type": "bool"
        }
      ],
      "name": "setPaused",
      "outputs": [],
      "stateMutability": "nonpayable",
      "type": "function"
    },
    {
      "inputs": [
        {
          "internalType": "contract IERC20",
          "name": "token",
          "type": "address"
        },
        {
          "internalType": "bool",
          "name": "supported",
          "type": "bool"
        }
      ],
      "name": "setSupportedToken",
      "outputs": [],
      "stateMutability": "nonpayable",
      "type": "function"
    },
    {
      "inputs": [
        {
          "internalType": "contract IERC20",
          "name": "",
          "type": "address"
        }
      ],
      "name": "supportedTokens",
      "outputs": [
        {
          "internalType": "bool",
          "name": "",
          "type": "bool"
        }
      ],
      "stateMutability": "view",
      "type": "function"
    },
    {
      "inputs": [
        {
          "internalType": "contract IERC20",
          "name": "",
          "type": "address"
        }
      ],
      "name": "totalDeposits",
      "outputs": [
        {
          "internalType": "uint256",
          "name": "",
          "type": "uint256"
        }
      ],
      "stateMutability": "view",
      "type": "function"
    },
    {
      "inputs": [
        {
          "internalType": "contract IERC20",
          "name": "token",
          "type": "address"
        },
        {
          "internalType": "uint256",
          "name": "amount",
          "type": "uint256"
        }
      ],
      "name": "withdraw",
      "outputs": [],
      "stateMutability": "nonpayable",
      "type": "function"
    }
  ],
  "bytecode": "0x6080604052609660035534801561001557600080fd5b506001600081905580546001600160a01b031916331790556117718061003c6000396000f3fe608060405234801561001057600080fd5b50600436106101005760003560e01c80638f601f6611610097578063e940325611610066578063e9403256146102e3578063f3fef3a314610303578063f851a44014610316578063f966ade71461034157600080fd5b80638f601f661461027f578063bbdfa00e146102aa578063d0b0c816146102bd578063e7986466146102d057600080fd5b80635c975abb116100d35780635c975abb1461015c57806368c4ac26146101795780636ff1c9bc1461019c57806373b4086b146101af57600080fd5b806316c38b3c146101055780631cd083e41461011a5780634031234c1461012d57806347e7ef2414610149575b600080fd5b61011861011336600461149c565b610349565b005b6101186101283660046114ce565b61038f565b61013660035481565b6040519081526020015b60405180910390f35b610118610157366004611527565b610826565b6004546101699060ff1681565b6040519015158152602001610140565b610169610187366004611553565b60026020526000908152604090205460ff1681565b6101186101aa366004611553565b6109f2565b6102226101bd366004611553565b600560208190526000918252604090912080546001820154600283015460038401546004850154958501546006860154600787015460088801546009909801546001600160a01b03978816999688169895909716969395949293919260ff909116918a565b604080516001600160a01b039b8c168152998b1660208b015297909916968801969096526060870194909452608086019290925260a085015260c0840152151560e083015261010082015261012081019190915261014001610140565b61013661028d366004611570565b600660209081526000928352604080842090915290825290205481565b6101186102b8366004611553565b610b1c565b6101186102cb3660046115a9565b610e00565b6101186102de3660046115c2565b610e73565b6101366102f1366004611553565b60076020526000908152604090205481565b610118610311366004611527565b610fec565b600154610329906001600160a01b031681565b6040516001600160a01b039091168152602001610140565b6101186111b0565b6001546001600160a01b0316331461037c5760405162461bcd60e51b8152600401610373906115f0565b60405180910390fd5b6004805460ff1916911515919091179055565b60045460ff16156103b25760405162461bcd60e51b815260040161037390611614565b6001600160a01b03861660009081526002602052604090205460ff1680156103f257506001600160a01b03851660009081526002602052604090205460ff165b61044d5760405162461bcd60e51b815260206004820152602660248201527f436f6c6c61746572616c206f72206c6f616e20746f6b656e206e6f74207375706044820152651c1bdc9d195960d21b6064820152608401610373565b60008211801561045e575060648211155b6104a25760405162461bcd60e51b8152602060048201526015602482015274496e76616c696420696e746572657374207261746560581b6044820152606401610373565b6001600160a01b0385166000908152600760205260409020548311156105035760405162461bcd60e51b8152602060048201526016602482015275496e73756666696369656e74206c697175696469747960501b6044820152606401610373565b600084116105645760405162461bcd60e51b815260206004820152602860248201527f436f6c6c61746572616c20616d6f756e74206d75737420626520677265617465604482015267072207468616e20360c41b6064820152608401610373565b6040516323b872dd60e01b81526000906001600160a01b038816906323b872dd9061059790339030908a9060040161163d565b6020604051808303816000875af11580156105b6573d6000803e3d6000fd5b505050506040513d601f19601f820116820180604052508101906105da9190611661565b9050806105f95760405162461bcd60e51b81526004016103739061167e565b604051806101400160405280336001600160a01b03168152602001886001600160a01b03168152602001876001600160a01b03168152602001868152602001858152602001848152602001836201518061065391906116bd565b61065d90426116da565b815260006020808301829052426040808501919091526060938401839052338084526005808452828520875181546001600160a01b03199081166001600160a01b039283161783559589015160018301805488169183169190911790558885015160028301805490971690821617909555958701516003870155608087015160048088019190915560a08801519187019190915560c0870151600687015560e087015160078701805460ff19169115159190911790556101008701516008870155610120909601516009909501949094555163a9059cbb60e01b81529384019290925260248301879052919088169063a9059cbb906044016020604051808303816000875af1158015610774573d6000803e3d6000fd5b505050506040513d601f19601f820116820180604052508101906107989190611661565b9050806107e75760405162461bcd60e51b815260206004820152601a60248201527f4c6f616e20746f6b656e207472616e73666572206661696c65640000000000006044820152606401610373565b60405185815233907fff6a5b0e4cacd5965a6a32e6b962e1c85c90ea06d047a28293fe91759a79f2899060200160405180910390a25050505050505050565b61082e61140b565b60045460ff16156108515760405162461bcd60e51b815260040161037390611614565b6001600160a01b03821660009081526002602052604090205460ff166108af5760405162461bcd60e51b8152602060048201526013602482015272151bdad95b881b9bdd081cdd5c1c1bdc9d1959606a1b6044820152606401610373565b6040516323b872dd60e01b81526001600160a01b038316906323b872dd906108df9033903090869060040161163d565b6020604051808303816000875af11580156108fe573d6000803e3d6000fd5b505050506040513d601f19601f820116820180604052508101906109229190611661565b61093e5760405162461bcd60e51b81526004016103739061167e565b6001600160a01b0382166000908152600660209081526040808320338452909152812080548392906109719084906116da565b90915550506001600160a01b0382166000908152600760205260408120805483929061099e9084906116da565b90915550506040518181526001600160a01b0383169033907f5548c837ab068cf56a2c2479df0882a4922fd203edb7517321831d95078c5f62906020015b60405180910390a36109ee6001600055565b5050565b6001546001600160a01b03163314610a1c5760405162461bcd60e51b8152600401610373906115f0565b6040516370a0823160e01b81523060048201526000906001600160a01b038316906370a0823190602401602060405180830381865afa158015610a63573d6000803e3d6000fd5b505050506040513d601f19601f82011682018060405250810190610a8791906116ed565b60015460405163a9059cbb60e01b81526001600160a01b0391821660048201526024810183905291925083169063a9059cbb906044016020604051808303816000875af1158015610adc573d6000803e3d6000fd5b505050506040513d601f19601f82011682018060405250810190610b009190611661565b6109ee5760405162461bcd60e51b81526004016103739061167e565b60045460ff1615610b3f5760405162461bcd60e51b815260040161037390611614565b6001600160a01b038116600090815260056020526040902060068101544211610b9d5760405162461bcd60e51b815260206004820152601060248201526f131bd85b881b9bdd08195e1c1a5c995960821b6044820152606401610373565b600781015460ff1615610be75760405162461bcd60e51b8152602060048201526012602482015271105b1c9958591e481b1a5c5d5a59185d195960721b6044820152606401610373565b60038101546000610bf783611435565b8360040154610c0691906116da565b905060035481610c1691906116bd565b610c218360646116bd565b10610c665760405162461bcd60e51b815260206004820152601560248201527410dbdb1b185d195c985b081cdd59999a58da595b9d605a1b6044820152606401610373565b6000610c7184611435565b8460040154610c8091906116da565b60028501546040516323b872dd60e01b81529192506001600160a01b0316906323b872dd90610cb79033903090869060040161163d565b6020604051808303816000875af1158015610cd6573d6000803e3d6000fd5b505050506040513d601f19601f82011682018060405250810190610cfa9190611661565b610d385760405162461bcd60e51b815260206004820152600f60248201526e26bab9ba103932b830bc903637b0b760891b6044820152606401610373565b6001840154600385015460405163a9059cbb60e01b815233600482015260248101919091526001600160a01b039091169063a9059cbb906044016020604051808303816000875af1158015610d91573d6000803e3d6000fd5b505050506040513d601f19601f82011682018060405250810190610db59190611661565b5060078401805460ff191660011790556040516001600160a01b038616907f5935028219092e7184ead5f885af757f84da7ac29a9494995fe2fd03083b7e8e90600090a25050505050565b6001546001600160a01b03163314610e2a5760405162461bcd60e51b8152600401610373906115f0565b60648111610e6e5760405162461bcd60e51b8152602060048201526011602482015270125b9d985b1a59081d1a1c995cda1bdb19607a1b6044820152606401610373565b600355565b6001546001600160a01b03163314610e9d5760405162461bcd60e51b8152600401610373906115f0565b6001600160a01b038216610eeb5760405162461bcd60e51b8152602060048201526015602482015274496e76616c696420746f6b656e206164647265737360581b6044820152606401610373565b6000826001600160a01b03166318160ddd6040518163ffffffff1660e01b8152600401602060405180830381865afa158015610f2b573d6000803e3d6000fd5b505050506040513d601f19601f82011682018060405250810190610f4f91906116ed565b1015610f8d5760405162461bcd60e51b815260206004820152600d60248201526c0496e76616c696420455243323609c1b6044820152606401610373565b6001600160a01b038216600081815260026020908152604091829020805460ff191685151590811790915591519182527fc2af510a9d71a987e12298c8d681a18ee686d181e6fb0bd4166cc01cd7eed4b3910160405180910390a25050565b610ff461140b565b60045460ff16156110175760405162461bcd60e51b815260040161037390611614565b6001600160a01b03821660009081526006602090815260408083203384529091529020548111156110815760405162461bcd60e51b8152602060048201526014602482015273496e73756666696369656e742062616c616e636560601b6044820152606401610373565b6001600160a01b0382166000908152600660209081526040808320338452909152812080548392906110b4908490611706565b90915550506001600160a01b038216600090815260076020526040812080548392906110e1908490611706565b909155505060405163a9059cbb60e01b8152336004820152602481018290526001600160a01b0383169063a9059cbb906044016020604051808303816000875af1158015611133573d6000803e3d6000fd5b505050506040513d601f19601f820116820180604052508101906111579190611661565b6111735760405162461bcd60e51b81526004016103739061167e565b6040518181526001600160a01b0383169033907f9b1bfa7fa9ee420a16e124f794c35ac9f90472acc99140eb2f6447c714cad8eb906020016109dc565b6111b861140b565b336000908152600560205260409020600781015460ff161561121c5760405162461bcd60e51b815260206004820152601760248201527f4c6f616e20616c7265616479206c6971756964617465640000000000000000006044820152606401610373565b600061122782611435565b826004015461123691906116da565b60028301546040516323b872dd60e01b81529192506001600160a01b0316906323b872dd9061126d9033903090869060040161163d565b6020604051808303816000875af115801561128c573d6000803e3d6000fd5b505050506040513d601f19601f820116820180604052508101906112b09190611661565b6112cc5760405162461bcd60e51b81526004016103739061167e565b6001820154600383015460405163a9059cbb60e01b815233600482015260248101919091526001600160a01b039091169063a9059cbb906044016020604051808303816000875af1158015611325573d6000803e3d6000fd5b505050506040513d601f19601f820116820180604052508101906113499190611661565b6113955760405162461bcd60e51b815260206004820152601860248201527f436f6c6c61746572616c2072657475726e206661696c656400000000000000006044820152606401610373565b5050336000908152600560208190526040822080546001600160a01b0319908116825560018201805482169055600282018054909116905560038101839055600481018390559081018290556006810182905560078101805460ff1916905560088101829055600901556114096001600055565b565b60026000540361142e57604051633ee5aeb560e01b815260040160405180910390fd5b6002600055565b6000808260080154426114489190611706565b905060646301e13380828560050154866004015461146691906116bd565b61147091906116bd565b61147a9190611719565b6114849190611719565b9392505050565b801515811461149957600080fd5b50565b6000602082840312156114ae57600080fd5b81356114848161148b565b6001600160a01b038116811461149957600080fd5b60008060008060008060c087890312156114e757600080fd5b86356114f2816114b9565b95506020870135611502816114b9565b95989597505050506040840135936060810135936080820135935060a0909101359150565b6000806040838503121561153a57600080fd5b8235611545816114b9565b946020939093013593505050565b60006020828403121561156557600080fd5b8135611484816114b9565b6000806040838503121561158357600080fd5b823561158e816114b9565b9150602083013561159e816114b9565b809150509250929050565b6000602082840312156115bb57600080fd5b5035919050565b600080604083850312156115d557600080fd5b82356115e0816114b9565b9150602083013561159e8161148b565b6020808252600a908201526927b7363c9030b236b4b760b11b604082015260600190565b6020808252600f908201526e10dbdb9d1c9858dd081c185d5cd959608a1b604082015260600190565b6001600160a01b039384168152919092166020820152604081019190915260600190565b60006020828403121561167357600080fd5b81516114848161148b565b6020808252600f908201526e151c985b9cd9995c8819985a5b1959608a1b604082015260600190565b634e487b7160e01b600052601160045260246000fd5b80820281158282048414176116d4576116d46116a7565b92915050565b808201808211156116d4576116d46116a7565b6000602082840312156116ff57600080fd5b5051919050565b818103818111156116d4576116d46116a7565b60008261173657634e487b7160e01b600052601260045260246000fd5b50049056fea2646970667358221220b59ad770d9b719219a37455e2586123db53053f8a5b0537e5490e023f20b5be164736f6c63430008140033",
  "linkReferences": {},
  "deployedLinkReferences": {}
}